:0400000080312C28F7
:100008007E14803120007F08F100911C11284808D7
:100018009B009110C601C60A2828921C1D28FA3098
:1000280028009600200092100130C3070030C43D1C
:100038002828111C28283C309700B0309600111051
:100048000130F0007008C5077108FF007E10090034
:1000580080312E28703084008F3085006030860013
:10006800233087000030FF0090308731EB27C30131
:10007800C401C501C601C701C8017E10200087312F
:10008800BF2F00302000BE00F030BF004230C0005B
:100098008E312A26803108302000C1004108F8003E
:1000A8000530C2004208F90002308431E924803169
:1000B80008302000C1004108F8000530C20042089D
:1000C800F90003308431E924803104302000C10074
:1000D8004108F8000530C2004208F90004308431B4
:1000E800E924803104302000C1004108F8000530BF
:1000F800C2004208F90002308431E924803104301A
:100108002000C1004108F8000530C2004208F9008B
:1001180003308431E924803108302000C1004108CF
:10012800F8000530C2004208F90002308431E924A1
:10013800803108302000C1004108F8000530C200B5
:100148004208F90001308431E92480310830200068
:10015800C1004108F8000530C2004208F90000302B
:100168008431E924803104302000C1004108F800BE
:100178000530C2004208F90000308431E92480319A
:1001880008302000C1004108F8000530C2004208CC
:10019800F90002308431E924803104302000C100A4
:1001A8004108F8000530C2004208F90004308431E3
:1001B800E924803108302000C1004108F8000530EA
:1001C800C2004208F90004308431E9248031083043
:1001D8002000C1004108F8000530C2004208F900BB
:1001E80004308431E924803104302000C100410802
:1001F800F8000530C2004208F90005308431E924CE
:10020800803104302000C1004108F8000530C200E8
:100218004208F90003308431E92480310830200095
:10022800C1004108F8000530C2004208F900043056
:100238008431E924803108302000C1004108F800E9
:100248000530C2004208F90004308431E9248031C5
:1002580008302000C1004108F8000530C2004208FB
:10026800F90003308431E924803108302000C100CE
:100278004108F8000530C2004208F9000230843114
:10028800E924803108302000C1004108F800053019
:10029800C2004208F90003308431E9248031043077
:1002A8002000C1004108F8000530C2004208F900EA
:1002B80003308431E924803108302000C10041082E
:1002C800F8000530C2004208F90002308431E92400
:1002D800803104302000C1004108F8000530C20018
:1002E8004208F90001308431E924803108302000C7
:1002F800C1004108F8000530C2004208F900023088
:100308008431E924803108302000C1004108F80018
:100318000530C2004208F90003308431E9248031F5
:1003280004302000C1004108F8000530C20042082E
:10033800F90004308431E924803104302000C10000
:100348004108F8000530C2004208F9000230843143
:10035800E924803108302000C1004108F800053048
:10036800C2004208F90003308431E92480310830A2
:100378002000C1004108F8000530C2004208F90019
:1003880003308431E924803108302000C10041085D
:10039800F8000530C2004208F90002308431E9242F
:1003A800803108302000C1004108F8000530C20043
:1003B8004208F90001308431E92480310E302000F0
:1003C800C1004108F8000530C2004208F9000030B9
:1003D8008431E924803108302000C1004108F80048
:1003E8000530C2004208F90002308431E924803126
:1003F80004302000C1004108F8000530C20042085E
:10040800F90004308431E924803108302000C1002B
:100418004108F8000630C2004208F9000030843173
:10042800E924803108302000C1004108F800053077
:10043800C2004208F90006308431E92480310430D2
:100448002000C1004108F8000530C2004208F90048
:1004580005308431E924803104302000C10041088E
:10046800F8000630C2004208F90000308431E9245F
:10047800803108302000C1004108F8000530C20072
:100488004208F90004308431E92480310830200022
:10049800C1004108F8000530C2004208F9000430E4
:1004A8008431E924803108302000C1004108F80077
:1004B8000630C2004208F90000308431E924803156
:1004C80008302000C1004108F8000630C200420888
:1004D800F90000308431E924803108302000C1005F
:1004E8004108F8000530C2004208F900063084319E
:1004F800E924803104302000C1004108F8000630AA
:10050800C2004208F90000308431E9248031083003
:100518002000C1004108F8000630C2004208F90076
:1005280001308431E924803104302000C1004108C1
:10053800F8000630C2004208F90000308431E9248E
:10054800803108302000C1004108F8000630C200A0
:100558004208F90000308431E92480310830200055
:10056800C1004108F8000530C2004208F900063011
:100578008431E924803108302000C1004108F800A6
:100588000530C2004208F90005308431E924803181
:1005980008302000C1004108F8000530C2004208B8
:1005A800F90005308431E924803108302000C10089
:1005B8004108F8000530C2004208F90005308431CE
:1005C800E924803108302000C1004108F8000530D6
:1005D800C2004208F90005308431E924803108302E
:1005E8002000C1004108F8000530C2004208F900A7
:1005F80006308431E924803108302000C1004108E8
:10060800F8000530C2004208F90005308431E924B9
:10061800803108302000C1004108F8000530C200D0
:100628004208F90004308431E92480310830200080
:10063800C1004108F8000530C2004208F900033043
:100648008431E924803112302000C1004108F800CB
:100658000530C2004208F90004308431E9248031B1
:1006680010302000C1004108F8000530C2004208DF
:10067800F90004308431E924803108302000C100B9
:100688004108F8000530C2004208F9000E308431F4
:10069800E924803108302000C1004108F800053005
:1006A800C2004208F90005308431E924803108305D
:1006B8002000C1004108F8000530C2004208F900D6
:1006C80006308431E924803104302000C10041081B
:1006D800F8000630C2004208F90000308431E924ED
:1006E800803108302000C1004108F8000530C20000
:1006F8004208F90004308431E924803104302000B4
:10070800C1004108F8000530C2004208F900053070
:100718008431E924803108302000C1004108F80004
:100728000530C2004208F90005308431E9248031DF
:1007380008302000C1004108F8000530C200420816
:10074800F90005308431E924803108302000C100E7
:100758004108F8000530C2004208F900053084312C
:10076800E924803108302000C1004108F800053034
:10077800C2004208F90006308431E924803108308B
:100788002000C1004108F8000630C2004208F90004
:1007980000308431E924803108302000C10041084C
:1007A800F8000630C2004208F90002308431E9241A
:1007B800803102302000C1004108F8000630C20034
:1007C8004208F90001308431E9248031043087314E
:1007D8001F27803108302000C1004108F80005308B
:1007E800C2004208F90002308431E924803108301F
:1007F8002000C1004108F8000530C2004208F90095
:1008080003308431E924803104302000C1004108DC
:10081800F8000530C2004208F90004308431E924A8
:10082800803104302000C1004108F8000630C200C1
:100838004208F90000308431E92480310830200072
:10084800C1004108F8000530C2004208F90006302E
:100858008431E924803104302000C1004108F800C7
:100868000530C2004208F90006308431E92480319D
:1008780008302000C1004108F8000630C2004208D4
:10088800F90000308431E924803108302000C100AB
:100898004108F8000530C2004208F90006308431EA
:1008A800E924803108302000C1004108F8000630F2
:1008B800C2004208F90000308431E9248031083050
:1008C8002000C1004108F8000630C2004208F900C3
:1008D80001308431E924803108302000C10041080A
:1008E800F8000630C2004208F90001308431E924DA
:1008F800803104302000C1004108F8000630C200F1
:100908004208F90000308431E924803108302000A1
:10091800C1004108F8000530C2004208F90004305F
:100928008431E924803108302000C1004108F800F2
:100938000530C2004208F90004308431E9248031CE
:1009480004302000C1004108F8000530C200420808
:10095800F90005308431E924803104302000C100D9
:100968004108F8000630C2004208F900003084311E
:10097800E92480310E302000C1004108F80005301C
:10098800C2004208F90006308431E9248031083079
:100998002000C1004108F8000530C2004208F900F3
:1009A80006308431E924803102302000C10041083A
:1009B800F8000630C2004208F90000308431E9240A
:1009C8008031043087311F2708002000A400A601C9
:1009D800A701C701072DA601A60A0330A000200819
:1009E800A700912DA601A60AA701A70A912D032DFC
:1009F8000230FF2C0430A0002008A600052DA60117
:100A0800A60AA701912D7908033A0319EF2C073A92
:100A18000319F62C013A0319FB2C033A0319FC2C91
:100A2800013A0319FE2C032D912D113098007B08F3
:100A3800A9007A08672D1130980049087A07A8009C
:100A48004A087B3D8F2D113098004C08A9004B08AF
:100A5800672D113098007A35A8007B0D8F2D113045
:100A680098007B08F3007A08F20003305D2D1130FE
:100A780098004B35A8004C0D8F2D822D1130980011
:100A88007B08F3007A08F20006305D2D11309800DB
:100A98004C08A1004B08872D213098007B08A10045
:100AA8007A086E2D213098007B08F3007A08F2004E
:100AB8000C30F4000030F5008E310F2684317308B5
:100AC8002000A9007208A800EE2D213098004C08DB
:100AD800A1004B08A000A035A10D882D2130980059
:100AE8007B08A1007A08A000A00EA10EF030A10595
:100AF80020080F39A104F030A0058C2D1130980082
:100B08007B08A1007A08A000A035A10DA035A10D91
:100B18002008A8002108A900EE2D7808013A031939
:100B2800722D033A0319502D063A0319412D0C3A38
:100B380003192D2D043A0319562D023A0319422D93
:100B48001E3A0319192D023A0319332D043A0319D1
:100B5800692D0E3A03194A2D043A03193B2D683AB8
:100B680003191F2DAC3A0319272D822DEE2D0430C1
:100B78009C009E30EB2D04309C009530EB2D04300A
:100B88009C008D30EB2D04309C008530EB2D04301B
:100B98009C007D30EB2D04309C007630EB2D04302A
:100BA8009C007030EB2D04309C006930EB2D043034
:100BB8009C006330EB2DE82D04309C005830EB2D61
:100BC80004309C005330EB2D04309C005E30C8008C
:100BD8009B00142E2408003A0319BB2D013A03196F
:100BE800C32D033A0319CB2D013A0319CF2D073A28
:100BF8000319D72D013A0319DF2D033A0319E42D00
:100C08000C3A0319BF2D013A0319C72D063A0319E7
:100C1800D32D033A0319DB2D013A0319E02DE82DF2
:100C280091101110921021009114111492142000A7
:100C3800AA0160302A020318522EA50125082702AE
:100C4800031C492E2A084707A000A101A10D603006
:100C5800A2002330A3002008220786002108233D94
:100C680087002A08603E840085012330853D0008FE
:100C78000107220099002000460803193F2EC601EB
:100C88000130A0002008A507222E2A082607A00068
:100C98002008AA0060302A02031C212E45080319E7
:100CA800632E30304706031D5C2E21001110612E83
:100CB80001302000A0002008C7072000C50129082E
:100CC800803AA0004408803A2002031D6D2E430894
:100CD800280203181B2E210092102000C301C40112
:100CE800C701080020002308A6002408A70025083B
:100CF800A8000310270D280DA9002908AE002E080A
:100D0800031D8D2E0030A0000030A1000030A2008D
:100D180008002008A6002108A7002208A800031040
:100D2800270D280DA9002908AF002F08031DA32EA1
:100D38000030A0000030A1000030A2000800003000
:100D4800AB000030AC000030AD0089302F07A600A2
:100D58002608AE022308A6002408A7002508A80034
:100D68001030A836A70CA60C890BB52E2608A900AA
:100D78002908AF002008A6002108A7002208A8001B
:100D88001030A836A70CA60C890BC52E2608A9007A
:100D98002908AF068030A6002608AF05A417FF3043
:100DA800A305FF30A4050030A505A117FF30A00555
:100DB800FF30A1050030A2051830A6002608AA00B9
:100DC8000130AB35AC0DAD0D890BE52E220825029F
:100DD800031DF42E21082402031DF42E20082302EB
:100DE800031CFD2E2008A3022108A43B2208A53BD2
:100DF8002B140130A335A40DA50D890BFE2E01304F
:100E0800AA02031DE42E2B08F2002C08F3002D087B
:100E1800F4002E08A6002608F5002F08A7002708CA
:100E2800F6008E31852672082000A0007308A10004
:100E38007408A20008002000A000802F7B2F49081A
:100E48007A07A1004A087B3D792F4C08A2004B087D
:100E58007E2F7A35A1007B0D792F7B08F3007A0865
:100E6800F2000330532F4B35A1004C0D792F7B082E
:100E7800F9007A08482F7B08F3007A08F200063058
:100E8800532F4C08F9004B08F800642F7B08F90031
:100E98007A08612F7B08F3007A08F2000C30F4001E
:100EA8000030F5008E310F26873173082000A2002C
:100EB80072087E2F4C08F9004B08F800F835F90D38
:100EC800F835F90DF835F90D762F7B08F9007A0811
:100ED800F800F80EF90EF030F90578080F39F90422
:100EE800F030F8057808A1007908A200A92F7B083E
:100EF800A2007A08A100A92F2008013A0319692F36
:100F0800033A03194A2F063A03193B2F0C3A0319DF
:100F18002D2F043A03194E2F023A03193F2F1E3A78
:100F28000319222F023A0319312F043A03195E2FAD
:100F38000E3A0319452F043A0319372F683A031953
:100F4800232FAC3A0319292F7B2F921021009214DA
:100F580020002208803AF8004408803A7802031DED
:100F6800B72F430821020318AC2F2100921020004C
:100F7800C301C401080070302100990023008E01CC
:100F88008C0121008C018E0180302200980099018B
:100F9800D2302A0091002130200098003C30970080
:100FA800B03096004E3028009700FA3096000B17A4
:100FB8008B1700302000BE00F030BF004230C00068
:100FC8008E312A268731803145208731E72FFE0070
:100FD80012001E000130FE020030FF3B7F087E0435
:060FE80003190034EC2F98
:101C1E00F601F701721C172E7408F6077508F73DCA
:101C2E000130F435F50D890B182E0130F336F20C18
:101C3E00890B1D2E72087304031D112E7708F300F5
:101C4E007608F200080080302000A3003B30A4008C
:101C5E004530A5003E08A0003F08A1004008A200A4
:101C6E00863176268E3120002008B0002108B10082
:101C7E002208B2008E31E9268E3120003108FB0099
:101C8E003008FA000030A300FA30A4004430A5005A
:101C9E003E08A0003F08A1004008A200863176262B
:101CAE008E3120002008B0002108B1002208B200B9
:101CBE008E31E9268E3120003108CC003008CB0061
:101CCE008030A300BB30A4004430A5003E08A00025
:101CDE003F08A1004008A200863176268E312000F2
:101CEE002008B0002108B1002208B2008E31E9268A
:101CFE0020003108CA003008C90008007508031911
:101D0E008D2E740873047204031D9E2E0030F20093
:101D1E000030F3000030F40008000130F7007708BF
:101D2E00F5070130F436F30CF20C890B992EFE30C8
:101D3E0074050319B72E942E0130F7007708F507B6
:101D4E000130F207003003180130F307003003189A
:101D5E000130F4070130F436F30CF20C890BB22E7D
:101D6E00FF3074050319C42EA32E0130F502013085
:101D7E00F235F30DF40D890BBF2EF31BCA2E023074
:101D8E0075020318BC2E7518D22EFF30F2057F3067
:101D9E00F305FF30F4050310F50C7508F700F80194
:101DAE00F9011030F735F80DF90D890BD92E77089A
:101DBE00F2047808F3047908F4047608031908008D
:101DCE00F417080020003008B4003108B5003208BE
:101DDE00B6000310350D360DB7003708BD003D08AF
:101DEE00031D022F0030B3000030B2000030B100EE
:101DFE000030B00008003008B4003108B5003208D9
:101E0E00B6001730B636B50CB40C890B092F340852
:101E1E00B7003708B800B117FF30B005FF30B10575
:101E2E000030B2053008B9003108BA003208BB00E4
:101E3E00BC018E30BD02BD1F402F3D08803A8F3E43
:101E4E000318322F0030B3000030B2000030B10062
:101E5E000030B00008000130BC36BB0CBA0CB90C17
:101E6E00890B332F0130B4003408BD070319592FE5
:101E7E00322F18303D02031C562F0030B3000030B5
:101E8E00B2000030B1000030B00008000130B935AA
:101E9E00BA0DBB0DBC0D890B4E2F0130BD023D0896
:101EAE00031D4D2F38080319672FB909BA09BB094D
:101EBE00BC09B90A0319BA0A0319BB0A0319BC0AE9
:101ECE003C08B3003B08B2003A08B1003908B00034
:101EDE0008004034443448344C345034543458346C
:101EEE005C346034633466346A346D346F34723407
:101EFE007434773479347A347C347D347E347E3461
:101F0E007F347F347F347E347E347D347C347A3437
:101F1E0079347734743472346F346D346A34663491
:101F2E00633460345C345834543450344C34483454
:101F3E00443440343C343834343430342C34283443
:101F4E00243421341D341A341634133411340E341F
:101F5E000C340934073406340434033402340234A6
:101F6E0001340134013402340234033404340634AF
:101F7E00073409340C340E341134133416341A3435
:101F8E001D342134243428342C3430343434383451
:101F9E003C344034443448344C3450345434583443
:101FAE005C346034633466346A346D346F34723446
:101FBE007434773479347A347C347D347E347E34A0
:101FCE007F347F347F347E347E347D347C347A3477
:101FDE0079347734743472346F346D346A346634D1
:101FEE00633460345C345834543450344C34483494
:021FFE00443469
:020000040001F9
:04000E00A4C97BDD29
:00000001FF
