:020000040000FA
:0400000080312828FB
:100008007E1480312000911C0F284B089B00911012
:10001800CA01CA0A2628921C1B28FA302800960012
:10002800200092100130C7070030C83D2628111C57
:1000380026283C309700B030960011100130F000AF
:100048007008C9077E10090080312A286E308400A4
:100058008730850060308600233087000030FF003D
:1000680090308D312C25FB01C701C801C901CA0197
:10007800CB017E1020008D31532D42302000BE0070
:10008800F030BD000030BC000030BB008D31812550
:10009800803108302000BF003F08F7000530C0005D
:1000A8004008F80000308531C9258031083020002B
:1000B800BF003F08F7000530C0004008F8000130D5
:1000C8008531C925803104302000BF003F08F70082
:1000D8000530C0004008F80002308531C92580315C
:1000E80008302000BF003F08F7000530C000400876
:1000F800F80002308531C925803108302000BF0062
:100108003F08F7000530C0004008F800033085318B
:10011800C925803104302000BF003F08F7000530B2
:10012800C0004008F80004308531C9258031083006
:100138002000BF003F08F7000530C0004008F80065
:1001480005308531C925803108302000BF003F08BF
:10015800F7000530C0004008F80006308531C92591
:10016800803112302000BF003F08F7000630C00081
:100178004008F80000308531C92580311030200052
:10018800BF003F08F7000630C0004008F800003004
:100198008531C925803108302000BF003F08F700AD
:1001A8000530C0004008F80003308531C92580318A
:1001B80008302000BF003F08F7000530C0004008A5
:1001C800F80005308531C925803104302000BF0092
:1001D8003F08F7000530C0004008F80004308531BA
:1001E800C925803108302000BF003F08F7000530DE
:1001F800C0004008F80002308531C9258031083038
:100208002000BF003F08F7000530C0004008F80094
:1002180000308531C925803112302000BF003F08E9
:10022800F7000530C0004008F80005308531C925C1
:10023800803110302000BF003F08F7000530C000B3
:100248004008F80005308531C92580310830200084
:10025800BF003F08F7000530C0004008F800033031
:100268008531C925803108302000BF003F08F700DC
:100278000530C0004008F80005308531C9258031B7
:1002880004302000BF003F08F7000530C0004008D8
:10029800F80004308531C925803108302000BF00BE
:1002A8003F08F7000530C0004008F80003308531EA
:1002B800C925803108302000BF003F08F70005300D
:1002C800C0004008F80002308531C9258031083067
:1002D8002000BF003F08F7000530C0004008F800C4
:1002E80001308531C925803108302000BF003F0822
:1002F800F7000530C0004008F80000308531C925F6
:10030800803108302000BF003F08F7000430C000EB
:100318004008F80005308531C925803108302000B3
:10032800BF003F08F7000530C0004008F800023061
:100338008531C925803104302000BF003F08F7000F
:100348000530C0004008F80001308531C9258031EA
:1003580008302000BF003F08F7000530C000400803
:10036800F80000308531C925803108302000BF00F1
:100378003F08F7000530C0004008F800013085311B
:10038800C925803104302000BF003F08F700053040
:10039800C0004008F80002308531C9258031083096
:1003A8002000BF003F08F7000530C0004008F800F3
:1003B80002308531C925803108302000BF003F0850
:1003C800F7000530C0004008F80003308531C92522
:1003D800803104302000BF003F08F7000530C0001E
:1003E8004008F80004308531C925803108302000E4
:1003F800BF003F08F7000530C0004008F80005308E
:100408008531C925803108302000BF003F08F7003A
:100418000530C0004008F80006308531C925803114
:1004280012302000BF003F08F7000630C000400827
:10043800F80000308531C925803110302000BF0018
:100448003F08F7000630C0004008F800003085314A
:10045800C925803108302000BF003F08F70005306B
:10046800C0004008F80003308531C92580310830C4
:100478002000BF003F08F7000530C0004008F80022
:1004880005308531C925803104302000BF003F0880
:10049800F7000530C0004008F80004308531C92550
:1004A800803108302000BF003F08F7000530C00049
:1004B8004008F80002308531C92580310830200015
:1004C800BF003F08F7000530C0004008F8000030C2
:1004D8008531C925803112302000BF003F08F70060
:1004E8000530C0004008F80005308531C925803145
:1004F80010302000BF003F08F7000530C00040085A
:10050800F80005308531C925803108302000BF004A
:100518003F08F7000530C0004008F8000630853174
:10052800C925803108302000BF003F08F700063099
:10053800C0004008F80000308531C92580310830F6
:100548002000BF003F08F7000530C0004008F80051
:1005580004308531C925803108302000BF003F08AC
:10056800F7000630C0004008F80000308531C92582
:10057800803108302000BF003F08F7000530C00078
:100588004008F80006308531C92580310830200040
:10059800BF003F08F7000630C0004008F8000030F0
:1005A8008531C925803108302000BF003F08F70099
:1005B8000530C0004008F80003308531C925803176
:1005C80008302000BF003F08F7000530C000400891
:1005D800F80002308531C925803108302000BF007D
:1005E8003F08F7000530C0004008F80001308531A9
:1005F800C925803108302000BF003F08F7000530CA
:10060800C0004008F80001308531C9258031043028
:100618002000BF003F08F7000530C0004008F80080
:1006280000308531C925803108302000BF003F08DF
:10063800F7000530C0004008F80000308531C925B2
:10064800803108302000BF003F08F7000530C000A7
:100658004008F80001308531C92580310430200078
:10066800BF003F08F7000530C0004008F80002301E
:100678008531C925803108302000BF003F08F700C8
:100688000530C0004008F80002308531C9258031A6
:1006980008302000BF003F08F7000530C0004008C0
:1006A800F80003308531C925803104302000BF00AF
:1006B8003F08F7000530C0004008F80004308531D5
:1006C800C925803108302000BF003F08F7000530F9
:1006D800C0004008F80005308531C9258031083050
:1006E8002000BF003F08F7000530C0004008F800B0
:1006F80006308531C925803112302000BF003F08FF
:10070800F7000630C0004008F80000308531C925E0
:10071800803110302000BF003F08F7000630C000CD
:100728004008F80000308531C925803108302000A4
:10073800BF003F08F7000530C0004008F80003304C
:100748008531C925803108302000BF003F08F700F7
:100758000530C0004008F80005308531C9258031D2
:1007680004302000BF003F08F7000530C0004008F3
:10077800F80004308531C925803108302000BF00D9
:100788003F08F7000530C0004008F8000230853106
:10079800C925803108302000BF003F08F700053028
:1007A800C0004008F80000308531C925803112307A
:1007B8002000BF003F08F7000530C0004008F800DF
:1007C80005308531C925803110302000BF003F0831
:1007D800F7000530C0004008F80005308531C9250C
:1007E800803108302000BF003F08F7000530C00006
:1007F8004008F80003308531C925803108302000D1
:10080800BF003F08F7000530C0004008F800053079
:100818008531C925803104302000BF003F08F7002A
:100828000530C0004008F80004308531C925803102
:1008380008302000BF003F08F7000530C00040081E
:10084800F80003308531C925803108302000BF0009
:100858003F08F7000530C0004008F8000230853135
:10086800C925803108302000BF003F08F700053057
:10087800C0004008F80001308531C92580310830B2
:100888002000BF003F08F7000530C0004008F8000E
:1008980000308531C925803108302000BF003F086D
:1008A800F7000430C0004008F80005308531C9253C
:1008B800803108302000BF003F08F7000530C00035
:1008C8004008F80002308531C92580310430200005
:1008D800BF003F08F7000530C0004008F8000130AD
:1008E8008531C925803108302000BF003F08F70056
:1008F8000530C0004008F80000308531C925803136
:1009080008302000BF003F08F7000530C00040084D
:10091800F80001308531C925803104302000BF003E
:100928003F08F7000530C0004008F8000230853164
:10093800C925803108302000BF003F08F700053086
:10094800C0004008F80002308531C92580310830E0
:100958002000BF003F08F7000530C0004008F8003D
:1009680003308531C925803104302000BF003F089D
:10097800F7000530C0004008F80004308531C9256B
:10098800803108302000BF003F08F7000530C00064
:100998004008F80005308531C9258031083020002D
:1009A800BF003F08F7000530C0004008F8000630D7
:1009B8008531C925803104302000BF003F08F70089
:1009C8000630C0004008F80000308531C925803164
:1009D80008302000BF003F08F7000530C00040087D
:1009E800F80003308531C925803108302000BF0068
:1009F8003F08F7000530C0004008F8000530853191
:100A0800C925803104302000BF003F08F7000530B9
:100A1800C0004008F80004308531C925803108300D
:100A28002000BF003F08F7000530C0004008F8006C
:100A380002308531C925803108302000BF003F08C9
:100A4800F7000530C0004008F80000308531C9259E
:100A5800803112302000BF003F08F7000530C00089
:100A68004008F80005308531C92580311030200054
:100A7800BF003F08F7000530C0004008F800053007
:100A88008531C925803108302000BF003F08F700B4
:100A98000530C0004008F80006308531C92580318E
:100AA80008302000BF003F08F7000630C0004008AB
:100AB800F80000308531C925803108302000BF009A
:100AC8003F08F7000530C0004008F80004308531C1
:100AD800C925803108302000BF003F08F7000630E4
:100AE800C0004008F80000308531C9258031083041
:100AF8002000BF003F08F7000530C0004008F8009C
:100B080006308531C925803108302000BF003F08F4
:100B1800F7000630C0004008F80000308531C925CC
:100B2800803108302000BF003F08F7000530C000C2
:100B38004008F80003308531C9258031083020008D
:100B4800BF003F08F7000530C0004008F800023039
:100B58008531C925803104302000BF003F08F700E7
:100B68000530C0004008F80001308531C9258031C2
:100B780004302000BF003F08F7000530C0004008DF
:100B8800F80000308531C92508002000A400A6011E
:100B9800A701FB01E72DA601A60A0330A000200843
:100BA800A700792EA601A60AA701A70A792EE32D88
:100BB8000230DF2D0430A0002008A600E52DA60194
:100BC800A60AA701792E7808A000A1012108003AF9
:100BD8000319EF2DE32D2008033A0319CF2D073A07
:100BE8000319D62D013A0319DB2D033A0319DC2D1D
:100BF800013A0319DE2DE32D792E113098004608AD
:100C0800A90045084F2E1130980041084507A80053
:100C18004208463D772E113098004408A900430841
:100C28004F2E113098004535A800460D772E11300B
:100C380098004608F2004508F1000330452E1130AF
:100C480098004335A800440D772E6A2E113098007D
:100C58004608F2004508F1000630452E113098008C
:100C68004408A10043086F2E213098004608A100CF
:100C78004508562E213098004608F2004508F10034
:100C88000C30F3000030F4008D31382585317208BE
:100C98002000A9007108A800DE2E21309800440821
:100CA800A1004308A000A035A10D702E21309800A6
:100CB8004608A1004508A000A00EA10EF030A1052D
:100CC80020080F39A104F030A005742E11309800C7
:100CD8004608A1004508A000A035A10DA035A10D2A
:100CE8002008A8002108A900DE2E7708A000A1018D
:100CF8002108003A0319812E6A2E2008013A0319A7
:100D08005A2E033A0319382E063A0319292E0C3A9B
:100D18000319152E043A03193E2E023A03192A2EF6
:100D28001E3A0319012E023A03191B2E043A03191D
:100D3800512E0E3A0319322E043A0319232E683A1B
:100D48000319072EAC3A03190F2E6A2EDE2E043033
:100D58009C009E30DB2E04309C009530DB2E043046
:100D68009C008D30DB2E04309C008530DB2E043057
:100D78009C007D30DB2E04309C007630DB2E043066
:100D88009C007030DB2E04309C006930DB2E043070
:100D98009C006330DB2ED82E04309C005830DB2EAC
:100DA80004309C005330DB2E04309C005E30CB00B6
:100DB8009B000C2F2408A000A1012108003A031968
:100DC800E62ED82E2008003A0319AB2E013A031953
:100DD800B32E033A0319BB2E013A0319BF2E073A63
:100DE8000319C72E013A0319CF2E033A0319D42E3B
:100DF8000C3A0319AF2E013A0319B72E063A031914
:100E0800C32E033A0319CB2E013A0319D02ED82E3C
:100E180091101110921021009114111492142000B5
:100E2800AA0160302A0203184A2FA50125082702C3
:100E3800031C412F2A087B07A000A101A10D6030E7
:100E4800A2002330A3002008220786002108233DA2
:100E580087002A08603E840085012330853D00080C
:100E680001072200990020004A080319372FCA01F8
:100E78000130A0002008A5071A2F2A082607A0007D
:100E88002008AA0060302A02031C192F49080319F8
:100E98005B2F30307B06031D542F21001110592F72
:100EA80001302000A0002008FB072000C901290804
:100EB800803AA0004808803A2002031D652F4708A1
:100EC80028020318132F210092102000C701C8011F
:100ED800FB0108004034443448344C345034543412
:100EE80058345C346034633466346A346D346F3437
:100EF80072347434773479347A347C347D347E3483
:100F08007E347F347F347F347E347E347D347C3449
:100F18007A3479347734743472346F346D346A3493
:100F28006634633460345C345834543450344C344C
:100F38004834443440343C343834343430342C3439
:100F48002834243421341D341A341634133411341B
:100F58000E340C34093407340634043403340234B0
:100F680002340134013401340234023403340434C9
:100F78000634073409340C340E341134133416345F
:100F88001A341D342134243428342C343034343485
:100F980038343C344034443448344C345034543479
:100FA80058345C346034633466346A346D346F3476
:100FB80072347434773479347A347C347D347E34C2
:100FC8007E347F347F347F347E347E347D347C3489
:100FD8007A3479347734743472346F346D346A34D3
:100FE8006634633460345C345834543450344C348C
:040FF8004834443401
:101A5800FE0012001E000130FE020030FF3B7F082E
:101A68007E04031900342D2DF501F601711C402D5B
:101A78007308F5077408F63D0130F335F40D890B4A
:101A8800412D0130F236F10C890B462D7108720494
:101A9800031D3A2D7608F2007508F1000800703031
:101AA8002100990023008E018C0121008C018E01F8
:101AB8008030220098009901D2302A00910021300C
:101AC800200098003C309700B03096004E30280037
:101AD8009700FA3096000B178B1742302000BE0093
:101AE800F030BD000030BC000030BB008D318125D6
:101AF8008D31803141208D317D2D4530F8003B30CE
:101B0800F7008030F6000030F50020003E08F400B1
:101B18003D08F3003C08F2003B08F1008E316D26C9
:101B28008D3174082000B5007308B4007208B30042
:101B38007108B2008D31EE258D3120003308C600C2
:101B48003208C5004430F800FA30F7000030F600DB
:101B58000030F5003E08F4003D08F3003C08F200B0
:101B68003B08F1008E316D268D3174082000B500D8
:101B78007308B4007208B3007108B2008D31EE2505
:101B88008D3120003308C4003208C3004430F80007
:101B9800BB30F7008030F6000030F5003E08F40056
:101BA8003D08F3003C08F2003B08F1008E316D2639
:101BB8008D3174082000B5007308B4007208B300B2
:101BC8007108B2008D31EE2520003308C2003208BA
:101BD800C100080020003208B6003308B7003408F6
:101BE800B8003508B9000310380D390DBA003A08A5
:101BF800FA007A08031D092E0030B5000030B40041
:101C08000030B3000030B20008003208B6003308D4
:101C1800B7003408B8003508B9001F30B936B80C19
:101C2800B70CB60C890B122E3608BA003A08F90020
:101C3800B417FF30B205FF30B305FF30B4050030EC
:101C4800B5059630FA02FA1F452E7A08803A973E73
:101C58000318372E0030B5000030B4000030B30050
:101C68000030B20008000130B536B40CB30CB20C29
:101C7800890B382E0130B6003608FA0703195E2E94
:101C8800372E20307A02031C5B2E0030B50000305E
:101C9800B4000030B3000030B20008000130B235A3
:101CA800B30DB40DB50D890B532E0130FA027A0825
:101CB800031D522E790803190800B209B309B409A3
:101CC800B509B20A0319B30A0319B40A0319B50A04
:101CD8000800780880392000A0002008A90078357D
:101CE800A0002008B000F71B3014300803198A2E12
:101CF800300A031D872E0030F8000030F70000304E
:101D0800F6000030F500F717F801922E0030F800C1
:101D18000030F7000030F6000030F5007408803914
:101D2800A0002008A9067435A0002008B100F31B04
:101D3800311431080319AE2E310A031DAB2E0030C1
:101D4800F4000030F3000030F2000030F100F31727
:101D5800F401B62E0030F4000030F3000030F20039
:101D68000030F1007408730472047104031DD52E49
:101D78000030F8000030F7000030F6000030F500C1
:101D88008030F7047F30F8042908A0002008F80400
:101D98007808F4007708F3007608F2007508F10077
:101DA80008003008031DE92E0030F8000030F70065
:101DB8000030F6000030F5007808F4007708F300EA
:101DC8007608F2007508F10008003108A000A101AA
:101DD800A009A109A00A0319A10A30082007A20036
:101DE80021080318210AA30022087F3EAA00003018
:101DF800233DAB007808A8007708A7007608A6005E
:101E08007508A5000030F8000030F7000030F60033
:101E18000030F5000030AF000030AE000030AD00FB
:101E28000030AC00B1011A3031020318532F3108C9
:101E38000319352F0130A535A60DA70DA80D890B5F
:101E48001F2F0130F535F60DF70DF80D890B262FEC
:101E5800AF1B75140130AC35AD0DAE0DAF0D890B50
:101E68002F2F74082802031D432F73082702031D10
:101E7800432F72082602031D432F71082502031CF5
:101E88004E2F2F177108A5027208A63B7308A73BAF
:101E98007408A83B0130A0002008B107172F2808B4
:101EA800270426042504031D2C14F71B702F01306A
:101EB800F535F60DF70DF80D890B5C2FAF1B751472
:101EC8000130AC35AD0DAE0DAF0D890B652FFF3070
:101ED800AA07FF30AB3D592FB101AF1F892FFF3043
:101EE8002C05A000FF302D05A100FF302E05A20013
:101EF8007F302F05A3002308220421042004031D9A
:101F0800872F751C892FB101B10A31080319B22F27
:101F18000130F5070030F63D0030F73D0030F83D60
:101F2800781CB22F7508A0007608A1007708A200D7
:101F38007808A3000130A400A337A20CA10CA00CC0
:101F4800A40BA02F2308F8002208F7002108F600A8
:101F58002008F5000130AA070030AB3D2B08803A75
:101F6800A00080302002031DBB2FFF302A02031C73
:101F7800CA2FFF302000AA000030AB000030F80064
:101F88000030F7000030F6000030F50020002B0884
:101F9800803AA00080302002031DD42F01302A028D
:101FA8000318E22F2000AA01AB010030F80000302E
:101FB800F7000030F6000030F500A90120002A08DB
:101FC800A0002008B000301CEB2FF717EF2F7F3050
:101FD800A0002008F7053036A0002008F8002908DE
:101FE800A0002008F8047808F4007708F3007608C1
:081FF800F2007508F100080079
:020000040001F9
:04000E0084C97BDD49
:00000001FF
